:020000040800F2
:10000000180700209D010008E12C0008451A00088F
:10001000DD2C0008A9020008BD2D0008000000002A
:10002000000000000000000000000000E52C0008B7
:10003000AD02000800000000E32C0008E72C0008D7
:10004000B7010008B7010008B7010008B7010008B0
:10005000B7010008B7010008B7010008B7010008A0
:10006000B7010008B7010008B7010008B701000890
:10007000B7010008B7010008B7010008B701000880
:10008000B7010008B7010008B7010008B701000870
:10009000B7010008B7010008B7010008B701000860
:1000A000B7010008B7010008B7010008B701000850
:1000B000B7010008B7010008B7010008591A000885
:1000C000491A0008791A0008691A0008B7010008DF
:1000D000B7010008B7010008B7010008B701000820
:1000E000B7010008B7010008B7010008B701000810
:1000F000B7010008B7010008B7010008B701000800
:10010000B7010008B7010008B7010008B7010008EF
:10011000B7010008B7010008B7010008B7010008DF
:10012000B7010008B7010008B7010008B7010008CF
:10013000B7010008B7010008B7010008B7010008BF
:10014000B7010008B7010008B7010008B7010008AF
:10015000B7010008B7010008B7010008B70100089F
:10016000B7010008B7010008B7010008B70100088F
:10017000B7010008B7010008B7010008000000003F
:10018000B7010008B7010008DFF80CD000F07AF8DA
:1001900000480047192E000818070020064880472D
:1001A00006480047FEE7FEE7FEE7FEE7FEE7FEE75C
:1001B000FEE7FEE7FEE7FEE7A12D00088901000843
:1001C0002DE9F05F0546002092469B46884606468C
:1001D000814640241BE0284641464746224600F01F
:1001E00041F853465A46C01A914110D31146184659
:1001F000224600F028F82D1A67EB01084F462246E8
:100200000120002100F01FF817EB00094E41201ECD
:10021000A4F10104DFDC484631462A464346BDE8E6
:10022000F09FD2B201E000F8012B491EFBD27047CB
:100230000022F6E710B513460A4604461946FFF7B2
:10024000F0FF204610BD202A04DB203A00FA02F11C
:10025000002070479140C2F1200320FA03F31943B4
:1002600090407047202A04DB203A21FA02F0002156
:10027000704721FA02F3D040C2F1200291400843B6
:1002800019467047064C074D06E0E06840F0010350
:1002900094E8070098471034AC42F6D3FFF778FF94
:1002A000EC2E00080C2F000800BFFEE770477047D7
:1002B000014691F83500022803D0802048650120CE
:1002C0007047052081F835000868006820F00100BB
:1002D0000A6810600020F3E7014691F83500704786
:1002E000F8B502460B460025002400200021DCE082
:1002F000012606FA01F51E6806EA0504AC4273D130
:100300005E68012E08D05E68022E05D05E68112E50
:1003100002D05E68122E13D190684F000326BE40B3
:10032000B0434F00DE68BE40304390605068012605
:100330008E40B0431E79C6F300168E4030435060A5
:10034000D0684F000326BE40B0434F009E68BE40B9
:100350003043D0605E68022E02D05E68122E13D148
:10036000CF0802F1200656F827004E07F70E0F2699
:10037000BE40B0434F07FF0E1E69BE403043CF085A
:1003800002F1200646F8270010684F000326BE4001
:10039000B0431E7906F003064F00BE4030431060A4
:1003A0005E6806F08056B6F1805F7DD100BF002602
:1003B0000096404E366846F480463E4F3E603E46CC
:1003C000366806F48046009600BF00BF3A4E8F089C
:1003D00056F827008E07370F0F26BE40B043374E22
:1003E000B24202D1002624E05EE0354EB24201D195
:1003F00001261EE0334EB24201D1022619E0324EF0
:10040000B24201D1032614E0304EB24201D104269B
:100410000FE02F4EB24201D105260AE02D4EB24226
:1004200001D1062605E02C4EB24201D1072600E09C
:1004300008268F073F0FBE4030431F4E8F0846F8F7
:100440002700264E3068A0435E6806F48036B6F575
:10045000803F00D12043214E3060361D3068A043DC
:100460005E6806F40036B6F5003F00D120431B4E0F
:10047000361D3060361D3068A0435E6806F4801675
:10048000B6F5801F00D12043144E08363060361D6B
:100490003068A0435E6806F40016B6F5001F00D170
:1004A00020430E4E0C363060491C1029FFF420AF5B
:1004B000F8BD000044380240083801400000024006
:1004C0000004024000080240000C024000100240FC
:1004D0000014024000180240001C0240003C014091
:1004E00001480068704700000400002070470000C9
:1004F00070B506460C461546A02D2AD1012C14D104
:1005000000201449087014480A4612788118012303
:100510001A46124800F094FD08B1FFF7C8FE0D48D6
:100520000078401C0B49087013E095200C490870B6
:1005300009480A461278811820230122074800F052
:10054000CEFD08B1FFF7B3FE05480078401E044910
:10055000087070BD00000020E80100201400002099
:10056000010000202DE9F84F044620684769206803
:10057000D0F80480002594F83E90C7F3002040B1E5
:10058000C8F3002028B145F001056FF480702168A0
:100590004861C7F3402040B1C8F3002028B145F0BE
:1005A00002056FF4007021684861C7F3802070B3C2
:1005B000C8F3002058B3CA46B4F82AB094F83D6096
:1005C000206B0090BAF1200F0FD1BBF1000F0CD1BE
:1005D000212E06D0292E04D0282E06D100982128BD
:1005E00003D1204602F0AEF811E06FF4806021687C
:1005F000486145F00405B9F1100F02D0B9F1400F80
:1006000005D12068006840F4007021680860C7F3D5
:10061000C02040B1C8F3002028B145F008056FF4B0
:100620000060216848612DB1206C28432064204679
:1006300001F08EFABDE8F88F2DE9F0470546002756
:1006400028684668D5F82C8095F83E9095F83DA02E
:10065000B9F1100F02D0B9F1400F78D1286887693D
:100660002868446904F0010060B9B8F52A0F02D087
:10067000B8F12A4F01D1012000E00020012801D16A
:10068000BDE8F08704F0010048B1C6F3402030B166
:10069000284601F0F9F9284601F033FFACE0C4F335
:1006A000C00030B1C6F3402018B1284601F0E0FD8B
:1006B000A2E0C4F3400030B1C6F3402018B1284690
:1006C00001F0EBFD98E0C7F38000F8B128684068BE
:1006D00000F40060B0F5006FE0D0C4F3C01048B182
:1006E000C6F3802030B1C4F3800018B9284601F069
:1006F00053FD81E0C4F3800000287DD0C6F3402084
:10070000002879D0284601F0EFFC75E028684068A1
:1007100000F40060B0F5006F6ED0C4F3801048B1F3
:10072000C6F3802030B1C4F3800018B9284601F028
:1007300093FB61E0C4F3800000285DD0C6F3402045
:10074000002859D0284601F0F4FA55E0FFE7286C5C
:1007500010B12868446903E02868876928684469FB
:10076000C4F3400058B1C6F3402040B1286C08B132
:10077000286887693946284601F0B0FF3CE0C4F399
:10078000001030B1C6F3402018B1284602F02AF814
:1007900032E0BAF1210F02D0BAF1290F16D1C4F319
:1007A000C01048B1C6F3802030B1C4F3800018B93E
:1007B000284601F070FF1FE0C4F38000E0B1C6F3EB
:1007C0004020C8B1284601F059FF15E0C4F380105D
:1007D00048B1C6F3802030B1C4F3800018B9284670
:1007E00001F029FF08E0C4F3800028B1C6F34020DF
:1007F00010B1284601F012FF00BF41E7014691F811
:100800003D0020281BD1282081F83D0008680068A1
:1008100000F0010028B90868006840F001000A688B
:1008200010600868006840F480600A68106008681A
:10083000406840F440700A68506000207047022011
:10084000FCE770470146086C7047000070B504462D
:100850000CB9012070BD94F83D0028B9002084F83F
:100860003C00204600F01EFB242084F83D00206858
:10087000006820F00100216808602068006840F4EA
:100880000040216808602068006820F4004021686A
:10089000086000F011FE05465C496068884206D891
:1008A0005B48854201D2012007E0002005E059485D
:1008B000854201D2012000E00020012800D1C9E7D3
:1008C0005548B5FBF0F62068406820F03F00304303
:1008D000216848604D496068884201D8701C07E073
:1008E0004FF4967070434FF47A71B0FBF1F0401CF6
:1008F0002168096A21F03F010843216808624349E1
:100900006068884214D8681E61684900B0FBF1F045
:10091000401CC0F30B00042801D204203DE0681EF7
:1009200061684900B0FBF1F0401CC0F30B0034E0FB
:10093000A06838B9681E616801EB4101B0FBF1F0B5
:10094000401C0AE0681E616801EBC10202EB011164
:10095000B0FBF1F0401C40F48040C0F30B0008B93C
:1009600001201AE0A06848B9681E616801EB4101E6
:10097000B0FBF1F0401CC0F30B000CE0681E616896
:1009800001EBC10202EB0111B0FBF1F0401CC0F31E
:100990000B0040F4804040F400402168C9694CF6E7
:1009A000FF72914308432168C861D4E907010843F5
:1009B0002168096821F0C001084321680860D4E972
:1009C000031008432168896848F2FF3291430843C5
:1009D00021688860D4E9050108432168C96821F0CD
:1009E000FF0108432168C8602068006840F00100EA
:1009F0002168086000202064202084F83D00002049
:100A0000206384F83E0000BF24E70000A0860100B8
:100A100080841E0000093D0040420F0010B50446CE
:100A20000348FFF7EBFE08B1FFF741FC10BD0000E3
:100A300014000020704770472DE9F84304468946AA
:100A400017469846089EFFF74BFD054694F83D0073
:100A500020287DD119230122B2492046009501F0BA
:100A6000B5FF10B10220BDE8F88300BF94F83C0048
:100A7000012801D10220F6E7012084F83C0000BFE4
:100A80002068006800F0010028B92068006840F084
:100A90000100216808602068006820F40060216877
:100AA0000860222084F83D00102084F83E000020D9
:100AB00020646762A4F82A80608D20859A48E062ED
:100AC0002B4632464946204601F018FA08B101206B
:100AD000C9E7208D88B900BF0020009020684069D8
:100AE000009020688069009000BF00BF2068006807
:100AF00040F400702168086047E0208D012817D17C
:100B00002068006820F480602168086000BF002031
:100B1000009020684069009020688069009000BFC4
:100B200000BF2068006840F40070216808602CE075
:100B3000208D022818D12068006820F48060216888
:100B400008602068006840F400602168086000E0E8
:100B5000E6E000BF00200090206840690090206817
:100B60008069009000BF10E02068006840F4806059
:100B70002168086000BF0020009020684069009054
:100B800020688069009000BF00BFBAE0208D032874
:100B90007ED8208D012815D12A463146204601F005
:100BA000BAFF08B101205EE720680069616A087039
:100BB000606A401C6062208D401E2085608D401E52
:100BC00060859EE0208D02282AD1334600225749B5
:100BD0002046009501F0FAFE08B1012043E72068A5
:100BE000006840F400702168086020680069616A4C
:100BF0000870606A401C6062208D401E2085608DF8
:100C0000401E608520680069616A0870606A401C47
:100C10006062208D401E2085608D401E608570E0E2
:100C20003346002241492046009501F0CFFE08B12D
:100C3000012018E72068006820F4806021680860BF
:100C400020680069616A0870606A401C6062208DDB
:100C5000401E2085608D401E60853346002233494A
:100C60002046009501F0B2FE08B10120FBE62068A5
:100C7000006840F400702168086020680069616ABB
:100C80000870606A401C6062208D401E208500E074
:100C900010E0608D401E608520680069616A087000
:100CA000606A401C6062208D401E2085608D401E61
:100CB000608526E02A463146204601F02CFF08B127
:100CC0000120D0E620680069616A0870606A401CF3
:100CD0006062208D401E2085608D401E60852068EA
:100CE0004069C0F3800060B120680069616A0870E3
:100CF000606A401C6062208D401E2085608D401E11
:100D00006085208D00287FF441AF202084F83D00CD
:100D1000002084F83E0000BF84F83C0000BFA2E63B
:100D20000220A0E6020010000000FFFF0400010006
:100D30002DE9F8430446894616461F46DDF8208013
:100D4000FFF7CEFB054694F83D0020287ED11923FD
:100D5000012251492046009501F038FE10B10220D1
:100D6000BDE8F88300BF94F83C00012801D10220BF
:100D7000F6E7012084F83C0000BF2068006800F01E
:100D8000010028B92068006840F00100216808606F
:100D90002068006820F4006021680860212084F841
:100DA0003D00102084F83E000020206466626785C4
:100DB000608D20853948E0622B46424649462046F0
:100DC00001F034F908B10120CAE700BF002000900B
:100DD00020684069009020688069009000BF00BFD3
:100DE00044E02A464146204601F0D5FE50B1206C31
:100DF000042805D12068006840F40070216808606C
:100E00000120ADE7606A007821680861606A401CD3
:100E10006062608D401E6085208D401E20852068A8
:100E20004069C0F3800070B1208D60B1606A0078C5
:100E300021680861606A401C6062608D401E6085A8
:100E4000208D401E20852A46414600E022E02046B3
:100E500001F08EFD50B1206C042805D12068006897
:100E600040F4007021680860012079E7208D002897
:100E7000B7D12068006840F4007021680860202025
:100E800084F83D00002084F83E0000BF84F83C0058
:100E900000BF65E7022063E7020010000000FFFFCB
:100EA0007047704710B586B00446142101A8FFF7BB
:100EB000BFF946492068884241D100BF0020009018
:100EC0004348006840F00200414908600846006855
:100ED00000F00200009000BF00BF4FF4407001908E
:100EE000122002900120039003200490042005901A
:100EF00001A93848FFF7F4F900BF002000903448FA
:100F00001030006840F40010314910310860084684
:100F1000006800F40010009000BF00BF00221146DE
:100F20001F2000F0AFF91F2000F09CF900221146AD
:100F3000202000F0A7F9202000F094F944E0264991
:100F40002068884240D100BF0020009020480068FF
:100F500040F002001E4908600846006800F00200E8
:100F6000009000BF00BF4FF440600190122002903B
:100F700001200390032004900420059001A9154846
:100F8000FFF7AEF900BF0020009011481030006854
:100F900040F480000E49103108600846006800F4F3
:100FA0008000009000BF00BF00221146212000F009
:100FB00069F9212000F056F900221146222000F0A4
:100FC00061F9222000F04EF906B010BD0054004037
:100FD00030380240000402400058004010B504467A
:100FE0000848094A1278811801231A46204600F061
:100FF00027F808B1FFF75BF903480078401C024965
:10100000087010BDE80100200000002010B5044663
:101010000848094A1278811820230122074800F065
:101020005EF808B1FFF743F903480078401E024913
:10103000087010BDE801002001000020140000200D
:1010400038B5044694F83D0000F02800282844D123
:1010500001B10AB9012038BD00BF94F83C00012855
:1010600001D10220F7E7012084F83C0000BF20688E
:10107000006800F0010028B92068006840F0010015
:10108000256828602068006820F4006025682860D2
:101090002A2084F83D00202084F83E0000202064AF
:1010A00061626285608D2085E36200BF0020009050
:1010B00020684069009020688069009000BF00BFF0
:1010C00000BF002084F83C0000BF2068406840F466
:1010D000E060256868600020BDE70220BBE738B506
:1010E000044694F83D0000F02800282844D101B1BE
:1010F0000AB9012038BD00BF94F83C00012801D195
:101100000220F7E7012084F83C0000BF2068006857
:1011100000F0010028B92068006840F0010025684F
:1011200028602068006820F4006025682860292075
:1011300084F83D00202084F83E0000202064616295
:101140006285608D2085E36200BF002000902068EA
:101150004069009020688069009000BF00BF00BF18
:10116000002084F83C0000BF2068406840F4E06044
:10117000256868600020BDE70220BBE703480068DF
:1011800003490978084401490860704704000020B9
:101190000C00002010B50D48006840F400700B49A9
:1011A00008600846006840F48060086008460068EF
:1011B00040F480700860032000F0A2F8002000F0E6
:1011C00007F800F02BF8002010BD0000003C0240A2
:1011D00070B504460E4800784FF47A71B1FBF0F018
:1011E0000C490968B1FBF0F5284600F011FC08B184
:1011F000012070BD102C07D200222146501E00F0A5
:1012000041F80548046001E00120F2E70020F0E722
:101210000C000020100000200800002008B500BFCE
:10122000002000900E48006840F480400C4908609F
:101230000846006800F48040009000BF00BF00BF77
:1012400000200090081F006840F08050091F0860CF
:101250000846006800F08050009000BF00BF08BD45
:101260004438024001460846002809DB00F01F030D
:1012700001229A4043099B0003F1E023C3F80021B7
:1012800000BF70472DE9F05F80460D4616460027E7
:1012900001F096FD074639462A46334601F007001D
:1012A000C0F1070ABAF1040F02D94FF0040A01E0B5
:1012B000C0F1070AD14600F1040ABAF1070F02D2C1
:1012C0004FF0000A01E0A0F1030AD4464FF0010AF2
:1012D0000AFA09FAAAF1010A0AEA020A0AFA0CFA57
:1012E0004FF0010B0BFA0CFBABF1010B0BEA030BFC
:1012F0004AEA0B042146404601F06AFDBDE8F09F32
:1013000000BF00F00702064B19684FF6FF031940B3
:10131000044B0B4343EA0221014B196000BF7047A5
:101320000CED00E00000FA0570B504460D460CB95E
:10133000012070BD5848006800F00F00A84209D293
:1013400055490D700846006800F00F00A84201D012
:101350000120EEE7207800F0020002281DD120785D
:1013600000F00400042805D14C48006840F4E05027
:101370004A490860207800F00800082805D147484D
:10138000006840F46040454908604448006820F027
:10139000F000A168084341490860207800F001008E
:1013A000A8B36068012807D13C4808380068C0F33A
:1013B0004040B8B90120BCE76068022802D06068EC
:1013C000032807D1354808380068C0F3406048B9A1
:1013D0000120AEE7314808380068C0F3400008B982
:1013E0000120A6E72D48006820F00300616808434B
:1013F0002A490860FFF774F8064609E0FFF770F81D
:10140000801B41F28831884202D9032091E707E02E
:101410002248006800F00C006168B0EB810FEDD14C
:101420001D48006800F00F00A84209D91A490D7044
:101430000846006800F00F00A84201D0012078E7BC
:10144000207800F00400042807D11448006820F434
:10145000E050E168084311490860207800F0080076
:10146000082808D10D48006820F46040216940EA4E
:10147000C1000A49086000F02FF808490968C1F363
:101480000311074A515CC8400649086006480068D5
:10149000FFF79EFE00204CE7003C02400838024067
:1014A000D42E000810000020080000200148006829
:1014B000704700001000002000B5FFF7F7FF044957
:1014C0000968C1F38221034A515CC84000BD000095
:1014D00008380240E42E00082DE9F04700240025DA
:1014E0000026A1462548006800F00C0020B1042821
:1014F00005D008283AD105E0DFF8849039E0DFF81C
:10150000849036E01D48001F006800F03F041B482F
:10151000001F006800F4800078B11A481749091FBD
:101520000968C1F38811A0FB01700146224600231F
:101530003846FEF745FE05460EE011480F49091FE3
:101540000968C1F38811A0FB0170014622460023FF
:101550003846FEF735FE05460848001F0068C0F310
:101560000140401C4600B5FBF6F902E0DFF81090A0
:1015700000BF00BF4846BDE8F087000008380240C1
:101580000024F40000127A00F8B504460CB90120DA
:10159000F8BD207800F00100002874D0F9480068F8
:1015A00000F00C0004280DD0F648006800F00C0094
:1015B000082813D1F348001F006800F48000B0F53C
:1015C000800F0BD1EF4808380068C0F34040002876
:1015D00059D06068002856D10120D9E700BF606863
:1015E000B0F5803F08D1E7480838006840F4803003
:1015F000E449083908601EE06068B0F5A02F0DD1FD
:10160000E0480838006840F48020DE490839086066
:101610000846006840F4803008600CE0D94808387B
:10162000006820F48030D74908390860084600680F
:1016300020F48020086000BF606890B1FEF750FF82
:10164000054606E0FEF74CFF401B642801D9032045
:101650009EE7CC4808380068C0F340400028F1D02D
:1016600011E0FEF73DFF054606E0FEF739FF401B9F
:10167000642801D903208BE7C24808380068C0F30A
:1016800040400028F1D1207800F0020002285FD10C
:10169000BC48006800F00C0058B1BA48006800F07F
:1016A0000C0008281CD1B748001F006800F4800017
:1016B000B0B9B44808380068C0F3400020B1E06811
:1016C000012801D0012063E7AE480838006820F007
:1016D000F800216940EAC100AA490839086037E0EA
:1016E000E06800B30120A8490860FEF7F9FE05464E
:1016F00006E0FEF7F5FE401B022801D9032047E76C
:10170000A04808380068C0F340000028F1D09D4888
:101710000838006820F0F800216940EAC1009949C2
:101720000839086014E0002097490860FEF7D8FEE9
:10173000054606E0FEF7D4FE401B022801D903202F
:1017400026E7904808380068C0F340000028F1D12F
:10175000207800F0080008282CD16069A8B1012089
:101760008A490860FEF7BCFE054606E0FEF7B8FEB3
:10177000401B022801D903200AE782486C30006828
:10178000C0F340000028F1D014E000207F49086039
:10179000FEF7A6FE054606E0FEF7A2FE401B022865
:1017A00001D90320F4E677486C300068C0F34000AC
:1017B0000028F1D1207800F00400042870D100271F
:1017C00070483830006800F0805090B900BF0020A9
:1017D00000906C483830006840F0805069493831DA
:1017E00008600846006800F08050009000BF00BF0D
:1017F00001276748006800F48070B0B96448006849
:1018000040F4807062490860FEF76AFE054606E013
:10181000FEF766FE401B022801D90320B8E65C48AB
:10182000006800F480700028F2D000BFA068012892
:1018300008D154486830006840F0010051496831CF
:1018400008601DE0A06805280DD14E48683000688A
:1018500040F004004B49683108600846006840F0D9
:10186000010008600CE047486830006820F0010083
:101870004449683108600846006820F004000860A8
:1018800000BFA068A8B1FEF72BFE054609E0FEF7F1
:1018900027FE401B41F28831884202D9032077E6B7
:1018A00026E0384868300068C0F340000028EED0D9
:1018B00013E0FEF715FE054608E0FEF711FE401B9B
:1018C00041F28831884201D9032061E62D48683011
:1018D0000068C0F340000028EFD1012F07D129484C
:1018E0003830006820F0805026493831086000BF49
:1018F000A069002845D02348006800F00C000828A3
:101900005DD0A069022845D100201F490866FEF776
:10191000E7FD054606E0FEF7E3FD401B022801D97E
:10192000032035E6174808380068C0F340600028F7
:10193000F1D1D4E907010843616A40EA811101222B
:10194000A06AC2EB500041EA00412C20005D41EA50
:1019500000600C49091F086001200B490866FEF76A
:10196000BFFD054606E0FEF7BBFD401B022801D97E
:1019700003200DE6034808380068C0F340600028E3
:10198000F1D03FE00838024000004742800E474255
:101990000070004000201C490866FEF7A1FD0546C6
:1019A00006E0FEF79DFD401B022801D90320EFE56C
:1019B00016480068C0F340600028F2D122E0A06918
:1019C000012800D1E4E51148001D066806F48001F5
:1019D000E069814214D106F03F01206A81420FD1B3
:1019E00047F6C0703040616A884209D106F4403140
:1019F000A06A814204D106F07061E06A814201D0A0
:101A00000120C5E50020C3E5000047420038024040
:101A100070B504462546681EB0F1807F01D30120D1
:101A20000FE0681E4FF0E02148610F214FF0FF30BA
:101A300001F0CEF900204FF0E02188610720086115
:101A4000002070BD00BFFEE710B50248FEF78AFD1A
:101A500010BD00001400002010B50248FEF7ECFD98
:101A600010BD00001400002010B50248FEF77AFDFA
:101A700010BD00006800002010B50248FEF7DCFD34
:101A800010BD000068000020C16AB1F52A0F02D124
:101A90000121C16205E0C16AB1F12A4F01D10821DB
:101AA000C162704770B50546AC6B94F83D60606BE1
:101AB00010B10020616BC863A06B10B10020A16B56
:101AC000C8632068006820F48060216808600020F6
:101AD0006085606B10B10020616B0865A06B10B170
:101AE0000020A16B08652068006820F001002168D3
:101AF000086094F83D0060280AD1202084F83D0059
:101B0000002084F83E0020642046FEF7EFFC1EE033
:101B100006F02800282811D12068006840F0010054
:101B2000216808602068006840F4806021680860CF
:101B300000202063282084F83D0005E0202084F860
:101B40003D00002084F83E002046FEF77AFE70BD7E
:101B500070B5044694F83D6094F83E00102807D113
:101B6000222E05D12068006820F4006021680860FA
:101B700006F02800282805D100202063282084F8BA
:101B80003D000FE02068406800F40060B0F5006F91
:101B900004D0602E02D0202084F83D000020206375
:101BA00084F83E002068406800F40060B0F5006FE3
:101BB00040D12068406820F4006021684860606B74
:101BC00090F83500012814D04848616B0865606BB7
:101BD000FEF76EFB00285BD02068006820F0010053
:101BE00021680860202084F83D00606B016D884703
:101BF0004EE03E48A16B0865A06BFEF759FB00283C
:101C000046D020684069C0F3801030B12068006978
:101C1000616A0870606A401C60622068006820F099
:101C2000010021680860202084F83D00A06B016D50
:101C300088472DE094F83D0060281AD1202084F8D0
:101C40003D000020206420684069C0F3801030B15E
:101C500020680069616A0870606A401C60622068E0
:101C6000006820F00100216808602046FEF73EFC75
:101C70000EE020684069C0F3801030B12068006930
:101C8000616A0870606A401C60622046FEF7D9FDF8
:101C9000256C05F0010058B905F00200022807D0B4
:101CA00005F00400042803D005F00800082805D139
:101CB0002068406820F4E0602168486094F83D6046
:101CC000206C00F0040004280ED1282E0CD1084806
:101CD000E06200202063202084F83D00002084F88A
:101CE0003E002046FEF79AFE70BD0000A51A0008CF
:101CF0000000FFFF014608684069C0F38020B0B1D2
:101D00006FF480600A68506100200863202081F829
:101D10003D00002081F83E00086C40F0040008649B
:101D200000BF002081F83C0000BF01207047002068
:101D3000FCE770B50446E56A608D042810D1206880
:101D4000406820F480602168486020680069616A0A
:101D50000870606A401C6062608D401E60857AE099
:101D6000608D03281AD12068406820F480602168C3
:101D70004860042D07D0022D05D02068006820F4AB
:101D800080602168086020680069616A0870606A84
:101D9000401C6062608D401E60855CE0608D0228A2
:101DA0004FD1012D01D0102D06D12068006820F4FC
:101DB00080602168086012E0042D01D0022D06D158
:101DC0002068006840F480602168086007E0102DFA
:101DD00005D02068006840F4007021680860206821
:101DE0000069616A0870606A401C6062608D401E14
:101DF000608520680069616A0870606A401C6062E2
:101E0000608D401E60852068406820F44070216825
:101E10004860202084F83D0094F83E00402807D117
:101E2000002084F83E0020632046FFF739F812E0D6
:101E3000002084F83E00122020632046FEF7FAFDC1
:101E400009E020680069616A0870606A401C60628D
:101E5000608D401E608570BD70B5044694F83D00ED
:101E600022284AD1658D032D13D920680069616A43
:101E70000870606A401C6062608D401E6085608DE5
:101E8000032839D12068406820F4806021684860C8
:101E900032E0E06A02282FD0012D00D01DBB20685F
:101EA000006820F48060216808602068406820F4A1
:101EB000E0602168486020680069616A0870606AB3
:101EC000401C6062608D401E6085202084F83D00CB
:101ED00094F83E00402807D1002084F83E0020639B
:101EE0002046FEF7DDFF07E0002084F83E001220C8
:101EF00020632046FEF79EFD00BF70BD2DE9F8432C
:101F000004460D4690461E46E76A2068006840F485
:101F1000806021680860082F04D0012F02D017F5D7
:101F2000803F06D12068006840F480702168086016
:101F300008E0206B112805D12068006840F480700B
:101F400021680860434600224FF0011120460096A8
:101F500000F03CFD50B12068006800F4807010B1C2
:101F60004FF4007020640320BDE8F8832069B0F5C9
:101F7000804F05D1E8B240F001002168086147E0D8
:101F800005F44070F02141EAE01021680861334611
:101F900042462549204600F05CFD08B10120E3E7F8
:101FA000E8B221680861334642461F49891F20462E
:101FB00000F04FFD08B10120D6E700BF00200090DF
:101FC00020684069009020688069009000BF00BFD1
:101FD0002068006840F48070216808604346002251
:101FE0004FF001112046009600F0F0FC48B1206847
:101FF000006800F4807010B14FF40070206403207A
:10200000B2E705F44070F12141EAE010216808616F
:10201000334642460449891F204600F01AFD08B1A4
:102020000120A1E700209FE7080001002DE9F84307
:1020300004460D4617469846E66A082E04D0012E3F
:1020400002D016F5803F06D12068006840F4807009
:102050002168086008E0206B122805D1206800681C
:1020600040F48070216808603B4600224FF0011167
:102070002046CDF8008000F0A9FC50B1206800682F
:1020800000F4807010B14FF4007020640320BDE8AC
:10209000F8832069B0F5804F04D105F0FE00216877
:1020A000086112E005F44070F02141EAE010216877
:1020B000086143463A460B49204600F0CAFC08B185
:1020C0000120E4E7E8B22168086143463A46054941
:1020D000891F204600F0BDFC08B10120D7E7002091
:1020E000D5E700000800010070B50446E56A94F8E1
:1020F0003D00212848D1608D50B1606A0078216888
:102100000861606A401C6062608D401E608542E02C
:10211000082D16D0202D14D015F5803F11D0206841
:10212000406820F4E06021684860112020630020AE
:1021300084F83E00202084F83D002046FEF77BFC1A
:1021400029E02068406820F4E06021684860206849
:10215000006840F40070216808600020206320209F
:1021600084F83D0094F83E00402806D1002084F811
:102170003E002046FEF795FE0DE0002084F83E006C
:102180002046FEF758FC06E094F83E00402802D1B5
:10219000204600F005FA70BD2DE9F041044694F8A0
:1021A0003D5094F83E70E66A208DB0BB212D3CD1A5
:1021B000082E16D0202E14D016F5803F11D020689E
:1021C000406820F4E060216848601120206300200E
:1021D00084F83E00202084F83D002046FEF72BFCCA
:1021E00044E02068406820F4E0602168486020688E
:1021F000006840F4007021680860002020632020FF
:1022000084F83D0094F83E00402807D1002084F86F
:102210003E002046FEF745FE28E006E0002084F858
:102220003E002046FEF707FC20E0212D03D0402F82
:102230001CD1222D1AD1608D30B92068406820F45D
:1022400080602168486011E094F83E00402803D186
:10225000204600F0A5F909E0606A0078216808616D
:10226000606A401C6062608D401E6085BDE8F08140
:10227000416CC9B202681161416B09B9816B59B1F6
:10228000416BC96B11B9816BC96B29B10168496890
:1022900041F4006102685160704738B590F83E2003
:1022A000C16A036B90F83D40222C73D1046D64B970
:1022B000402A0AD100BF0024009404686469009495
:1022C0000468A469009400BF1AE1046DC4B90469EC
:1022D000B4F5404F14D100BF002400940468646931
:1022E00000940468A469009400BF00BF04682468D7
:1022F00044F4807405682C60046D641C0465FFE080
:10230000448D8CB900BF0024009404686469009473
:102310000468A469009400BF00BF0468246844F402
:10232000007405682C60DDE0448D012C72D111F53C
:10233000803F30D10468246824F4806405682C60F0
:102340000468646804F40064B4F5006F10D1046894
:10235000246824F4806405682C6000BF0024009485
:102360000468646900940468A469009400BFB9E03B
:1023700000BF002400940468646900940468A469A0
:10238000009400BF00BF0468246844F4007405682A
:102390002C60A7E0A9E0082923D0202921D0122B06
:1023A00001D101291DD104290AD0022908D0102900
:1023B00006D00468246824F4806405682C6005E075
:1023C0000468246844F4806405682C6000BF00241D
:1023D00000940468646900940468A469009400BFD0
:1023E00080E00468246824F4806405682C6000BFE1
:1023F000002400940468646900940468A46900944B
:1024000000BF00BF0468246844F4007405682C60B1
:1024100068E0FFE7448D022C3BD1042910D002294B
:102420000ED010290CD00468246824F48064056858
:102430002C600468246844F4006405682C6005E09E
:102440000468246844F4806405682C600468646847
:1024500004F40064B4F5006F10D111F5803F07D08B
:10246000012905D0082903D0102901D0202905D140
:102470000468646844F4805405686C6000BF0024FC
:1024800000940468646900940468A469009400BF1F
:1024900028E00468246844F4806405682C600468BB
:1024A000646804F40064B4F5006F10D111F5803F46
:1024B00007D0012905D0082903D0102901D02029EF
:1024C00005D10468646844F4805405686C6000BFFA
:1024D000002400940468646900940468A46900946A
:1024E00000BF00BF002404650AE000BF0024009480
:1024F0000468646900940468A469009400BF00BF84
:1025000038BD90F83E1040290ED1016D29B9416CBB
:1025100001F0FE010268116141E0416CC9B241F075
:102520000101026811613AE00169B1F5804F20D1E3
:1025300090F83D10212905D1416C01F0FE0102689F
:10254000116105E0416CC9B241F0010102681161FD
:10255000416B11B1416BC96B21B9816BF9B1816BD1
:10256000C96BE1B10168496841F4006102685160DA
:1025700015E0016D41B9416C01F44071F02242EA6D
:10258000E111026811610AE0016D012907D1416C76
:1025900001F44071F12242EAE111026811617047D1
:1025A000016D99B9C16C012907D1816CC9B202686A
:1025B0001161016D891C01652FE0816CC1F3072158
:1025C00002681161016D491C016526E0016D012958
:1025D00007D1816CC9B202681161016D491C0165A6
:1025E0001BE0016D022918D190F83D10222906D177
:1025F0000168096841F48071026811600DE090F88B
:102600003D10212909D1416A097802681161416AA6
:10261000491C4162418D491E41857047418D49B138
:1026200001680969426A1170416A491C4162418D21
:10263000491E4185704770B5044694F83D50608D41
:10264000D8B120680069616A0870606A401C6062E5
:10265000608D401E6085608D78B92A2D0DD120686F
:10266000406820F480602168486022202063282090
:1026700084F83D002046FEF7B1FC70BD418D49B1A4
:10268000416A097802681161416A491C4162418DC1
:10269000491E4185704770B5044694F83D50608DE1
:1026A000D8B1606A007821680861606A401C606285
:1026B000608D401E6085608D78B9292D0DD1206810
:1026C000406820F480602168486021202063282031
:1026D00084F83D002046FEF799FC70BD2DE9F041DD
:1026E00004460D46002794F83D0000F028002828F5
:1026F0001CD12068406820F4806021684860C5F3E0
:10270000800000B90127C5F3C01010B9A08986B2B6
:1027100001E0208B86B200BF002084F83C0000BF9F
:10272000324639462046FDF7E3FE08E06FF002002E
:102730002168486100BF002084F83C0000BFBDE86C
:10274000F081000070B5044694F83D50E66A082E0A
:1027500001D0202E1FD1282D1DD12148E0622068F4
:10276000406820F4E060216848606FF48060216870
:1027700048612068006820F48060216808600020BB
:102780002063202084F83D00002084F83E0020468D
:10279000FEF744F923E0212D1DD11148E0622120EC
:1027A0002063202084F83D00002084F83E0020684B
:1027B000406820F4E060216848606FF48060216820
:1027C00048612068006820F4806021680860204625
:1027D000FEF71CFC03E06FF480602168486170BD67
:1027E0000000FFFF38B5044694F83D50206840686B
:1027F00020F4E0602168486000BF0020009020685D
:10280000406900902068006840F00100216808607D
:1028100000BF00BF2068006820F480602168086065
:102820002068406800F40060B0F5006F42D1222DAE
:1028300001D02A2D1FD1A06B006840686085608D93
:1028400018B1206C40F0040020642068406820F437
:10285000006021684860A06BFDF73EFD012829D08B
:102860004148A16B0865A06BFDF722FD10B3A06B7A
:10287000016D88471EE0606B006840686085608D70
:1028800018B1206C40F0040020642068406820F4F7
:10289000006021684860606BFDF71EFD012809D0CB
:1028A0003148616B0865606BFDF702FD10B1606B2C
:1028B000016D8847608D18B320684069C0F38000BF
:1028C00048B120680069616A0870606A401C6062F3
:1028D000608D401E608520684069C0F3801048B15B
:1028E00020680069616A0870606A401C6062608DDF
:1028F000401E6085608D18B1206C40F0040020649B
:10290000206C18B12046FFF723F92BE02A2D07D1C0
:1029100000202063282084F83D002046FEF75EFB5F
:1029200094F83D0028280DD11048E0620020206373
:10293000202084F83D00002084F83E002046FEF769
:102940006DF80FE0206B222801D0222D0AD1002043
:102950002063202084F83D00002084F83E002046BB
:10296000FEF73CFB38BD0000A51A00080000FFFF81
:1029700070B504460D46164620E02046FFF7BAF92A
:1029800008B1012070BD681CC0B1FDF7A9FD801B16
:10299000A84200D895B900202063202084F83D008B
:1029A000002084F83E00206C40F02000206400BF2E
:1029B000002084F83C0000BF0120E3E72068406964
:1029C000C0F380000028D8D00020DBE72DE9F041DB
:1029D00004460D4617461E46DDF818801CE0701CA4
:1029E000D0B1FDF77DFDA0EB0800B04200D89EB944
:1029F00000202063202084F83D00002084F83E0061
:102A0000206C40F02000206400BF002084F83C00CF
:102A100000BF0120BDE8F081C5F3074001280AD1BD
:102A200020684069A9B20840A9B2884201D10120BA
:102A30000BE0002009E020688069A9B20840A9B233
:102A4000884201D1012000E00020B842C7D0002018
:102A5000E0E72DE9F04104460D4616461F463DE0ED
:102A600020684069C0F38020E8B12068006840F425
:102A70000070216808606FF4806021684861002060
:102A80002063202084F83D00002084F83E00206C64
:102A900040F00400206400BF002084F83C0000BF28
:102AA0000120BDE8F081701CC0B1FDF719FDC01B0D
:102AB000B04200D896B900202063202084F83D0061
:102AC000002084F83E00206C40F02000206400BF0D
:102AD000002084F83C0000BF0120E2E7C5F3074076
:102AE00001280AD120684069A9B20840A9B28842E9
:102AF00001D101200BE0002009E020688069A9B223
:102B00000840A9B2884201D1012000E0002000283D
:102B1000A6D00020C5E770B504460D46164632E043
:102B200020684069C0F30010A0B16FF01000216868
:102B3000486100202063202084F83D00002084F8B4
:102B40003E00206C206400BF002084F83C0000BFE1
:102B5000012070BDFDF7C4FC801BA84200D895B9C8
:102B600000202063202084F83D00002084F83E00EF
:102B7000206C40F02000206400BF002084F83C005E
:102B800000BF0120E5E720684069C0F380100028FD
:102B9000C6D00020DDE770B504460D46164620E09D
:102BA0002046FFF7A7F808B1012070BD681CC0B12E
:102BB000FDF796FC801BA84200D895B90020206341
:102BC000202084F83D00002084F83E00206C40F076
:102BD0002000206400BF002084F83C0000BF0120DA
:102BE000E3E720684069C0F3C0100028D8D0002077
:102BF000DBE7000008B500BF002000901548006822
:102C000040F08000134908600846006800F080002A
:102C1000009000BF00BF00BF002000900846006881
:102C200040F0020008600846006800F002000090D2
:102C300000BF00BF00BF002000900846006840F0C1
:102C4000010008600846006800F00100009000BF25
:102C500000BF08BD3038024010B50D480D4908606E
:102C60000D48486000210B488160A021C1604FF4ED
:102C7000804101610021416181614021C1610021E8
:102C80000162FDF7E3FD08B1FDF711FB10BD000087
:102C90000054004014000020A086010010B50C482C
:102CA0000C4908600C48486000210A488160A22154
:102CB000C1604FF480410161002141618161C161C6
:102CC0000162FDF7C3FD08B1FDF7F1FA10BD000088
:102CD0000058004068000020A086010000BFFEE709
:102CE00070477047704710B5FEF748FA10BD0000F6
:102CF00000B593B0302107A8FDF79AFA142102A875
:102D0000FDF796FA00BF002001902348006840F0CC
:102D10008050214908600846006800F0805001900A
:102D200000BF00BF00BF002001901C48006840F4B5
:102D300080401A4908600846006800F4804001900D
:102D400000BF00BF012007900004089002200D90F2
:102D500041050E9104210F91D82110910421119168
:102D6000129107A8FEF710FC08B1FDF7A0FA0F209A
:102D7000029002200390002004904FF4A050059090
:102D80004FF480500690032102A8FEF7CDFA08B157
:102D9000FDF78DFA13B000BD4038024000700040CE
:102DA0000548006840F47000034908604FF0006077
:102DB000014980390860704788ED00E000BFFEE7F8
:102DC00002480068C0F30220704700000CED00E0EC
:102DD00010B5002804DB0A07130E054A135406E059
:102DE0000A07140E034A00F00F031B1FD45410BD32
:102DF00000E400E018ED00E002E008C8121F08C17E
:102E0000002AFAD170477047002001E001C1121F6B
:102E1000002AFBD170470000FEF7BCF9FFF768FFFE
:102E2000FFF7E8FEFFF718FFFFF738FF00F048F85C
:102E300009E000F00DF896210348FDF7F9F9962115
:102E40000248FDF7F5F9F4E7E801002052010020FF
:102E500038B5002405E0C4F1960016490855601CF9
:102E6000C4B2962CF7DB06E01348FDF7EBFC042810
:102E700001D0FDF71CFA42F2107096230D4AA021F2
:102E800000900D48FDF754FF0028EDD106E00A48F8
:102E9000FDF7D8FC042801D0FDF709FA42F21070C2
:102EA0009623064AA02100900348FDF7C5FD00289F
:102EB000EDD138BDBC000020680000205201002088
:102EC00010B50348FDF79AFC08B1FDF7F0F910BD05
:102ED00014000020000000000000000001020304B4
:102EE0000607080900000000010203040C2F000877
:102EF0000000002014000000F82D0008202F00081A
:102F00001400002004070000082E000800950000AF
:102F10000000000010000000010000000024F40088
:040000050800018965
:00000001FF
