:020000040800F2
:10000000C80900209D010008312A0008DD1B0008F6
:100010002D2A0008A9020008E12D000800000000B8
:10002000000000000000000000000000092D000892
:10003000AD02000800000000332A00080B2D000864
:10004000B7010008B7010008B7010008B7010008B0
:10005000B7010008B7010008B7010008B7010008A0
:10006000B7010008B7010008B7010008B701000890
:10007000B7010008B7010008B7010008B701000880
:10008000B7010008B7010008B7010008B701000870
:10009000B7010008B7010008B7010008B701000860
:1000A000B7010008B7010008B7010008B701000850
:1000B000B7010008B7010008B7010008F11B0008EC
:1000C000E11B0008B7010008B7010008352A000845
:1000D000452A0008B7010008B7010008B701000869
:1000E000B7010008B7010008B7010008B701000810
:1000F000B7010008B7010008B7010008B701000800
:10010000B7010008B7010008B7010008B7010008EF
:10011000B7010008B7010008B7010008B7010008DF
:10012000B7010008B7010008B7010008B7010008CF
:10013000B7010008B7010008B7010008B7010008BF
:10014000B7010008B7010008B7010008B7010008AF
:10015000B7010008B7010008B7010008B70100089F
:10016000B7010008B7010008B7010008B70100088F
:10017000B7010008B7010008B7010008000000003F
:10018000B7010008B7010008DFF80CD000F07AF8DA
:10019000004800473B2E0008C80900200648804759
:1001A00006480047FEE7FEE7FEE7FEE7FEE7FEE75C
:1001B000FEE7FEE7FEE7FEE7C52D0008890100081F
:1001C0002DE9F05F0546002092469B46884606468C
:1001D000814640241BE0284641464746224600F01F
:1001E00041F853465A46C01A914110D31146184659
:1001F000224600F028F82D1A67EB01084F462246E8
:100200000120002100F01FF817EB00094E41201ECD
:10021000A4F10104DFDC484631462A464346BDE8E6
:10022000F09FD2B201E000F8012B491EFBD27047CB
:100230000022F6E710B513460A4604461946FFF7B2
:10024000F0FF204610BD202A04DB203A00FA02F11C
:10025000002070479140C2F1200320FA03F31943B4
:1002600090407047202A04DB203A21FA02F0002156
:10027000704721FA02F3D040C2F1200291400843B6
:1002800019467047064C074D06E0E06840F0010350
:1002900094E8070098471034AC42F6D3FFF778FF94
:1002A000082F0008282F000800BFFEE7704770479E
:1002B000014691F83500022803D0802048650120CE
:1002C0007047052081F835000868006820F00100BB
:1002D0000A6810600020F3E7014691F83500704786
:1002E000F8B502460B460025002400200021DCE082
:1002F000012606FA01F51E6806EA0504AC4273D130
:100300005E68012E08D05E68022E05D05E68112E50
:1003100002D05E68122E13D190684F000326BE40B3
:10032000B0434F00DE68BE40304390605068012605
:100330008E40B0431E79C6F300168E4030435060A5
:10034000D0684F000326BE40B0434F009E68BE40B9
:100350003043D0605E68022E02D05E68122E13D148
:10036000CF0802F1200656F827004E07F70E0F2699
:10037000BE40B0434F07FF0E1E69BE403043CF085A
:1003800002F1200646F8270010684F000326BE4001
:10039000B0431E7906F003064F00BE4030431060A4
:1003A0005E6806F08056B6F1805F7DD100BF002602
:1003B0000096404E366846F480463E4F3E603E46CC
:1003C000366806F48046009600BF00BF3A4E8F089C
:1003D00056F827008E07370F0F26BE40B043374E22
:1003E000B24202D1002624E05EE0354EB24201D195
:1003F00001261EE0334EB24201D1022619E0324EF0
:10040000B24201D1032614E0304EB24201D104269B
:100410000FE02F4EB24201D105260AE02D4EB24226
:1004200001D1062605E02C4EB24201D1072600E09C
:1004300008268F073F0FBE4030431F4E8F0846F8F7
:100440002700264E3068A0435E6806F48036B6F575
:10045000803F00D12043214E3060361D3068A043DC
:100460005E6806F40036B6F5003F00D120431B4E0F
:10047000361D3060361D3068A0435E6806F4801675
:10048000B6F5801F00D12043144E08363060361D6B
:100490003068A0435E6806F40016B6F5001F00D170
:1004A00020430E4E0C363060491C1029FFF420AF5B
:1004B000F8BD000044380240083801400000024006
:1004C0000004024000080240000C024000100240FC
:1004D0000014024000180240001C0240003C014091
:1004E0000AB1816101E00B04836170470148006833
:1004F00070470000040000207047000070B50646F9
:100500000C461546A02D2AD1012C14D100201449E7
:10051000087014480A461278811801231A461248B6
:1005200000F014FB08B1FFF7C2FE0D480078401C34
:100530000B49087013E095200C49087009480A46D9
:100540001278811820230122074800F04EFB08B1E1
:10055000FFF7ADFE05480078401E0449087070BDE5
:100560000000002094010020140000200100002061
:100570002DE9F84F0446206847692068D0F80480C8
:10058000002594F83E90C7F3002040B1C8F3002046
:1005900028B145F001056FF4807021684861C7F308
:1005A000402040B1C8F3002028B145F002056FF4A7
:1005B000007021684861C7F3802070B3C8F3002041
:1005C00058B3CA46B4F82AB094F83D60206B009046
:1005D000BAF1200F0FD1BBF1000F0CD1212E06D0A4
:1005E000292E04D0282E06D10098212803D1204698
:1005F00002F04EF811E06FF480602168486145F028
:100600000405B9F1100F02D0B9F1400F05D12068EF
:10061000006840F4007021680860C7F3C02040B152
:10062000C8F3002028B145F008056FF40060216888
:1006300048612DB1206C28432064204601F044FB22
:10064000BDE8F88F2DE9F047054600272868466881
:10065000D5F82C8095F83E9095F83DA0B9F1100F93
:1006600002D0B9F1400F78D12868876928684469B9
:1006700004F0010060B9B8F52A0F02D0B8F12A4F92
:1006800001D1012000E00020012801D1BDE8F08760
:1006900004F0010048B1C6F3402030B1284601F013
:1006A000AFFA284601F0D4FEACE0C4F3C00030B18C
:1006B000C6F3402018B1284601F081FDA2E0C4F342
:1006C000400030B1C6F3402018B1284601F08CFD3F
:1006D00098E0C7F38000F8B12868406800F4006033
:1006E000B0F5006FE0D0C4F3C01048B1C6F380206D
:1006F00030B1C4F3800018B9284601F0F4FC81E061
:10070000C4F3800000287DD0C6F34020002879D0B3
:10071000284601F090FC75E02868406800F400600D
:10072000B0F5006F6ED0C4F3801048B1C6F38020DE
:1007300030B1C4F3800018B9284601F02AFC61E00A
:10074000C4F3800000285DD0C6F34020002859D0B3
:10075000284601F08BFB55E0FFE7286C10B12868B4
:10076000446903E02868876928684469C4F3400045
:1007700058B1C6F3402040B1286C08B12868876999
:100780003946284601F051FF3CE0C4F3001030B177
:10079000C6F3402018B1284601F0CAFF32E0BAF192
:1007A000210F02D0BAF1290F16D1C4F3C01048B1FD
:1007B000C6F3802030B1C4F3800018B9284601F098
:1007C00011FF1FE0C4F38000E0B1C6F34020C8B1C0
:1007D000284601F0FAFE15E0C4F3801048B1C6F3D4
:1007E000802030B1C4F3800018B9284601F0CAFE59
:1007F00008E0C4F3800028B1C6F3402010B12846B9
:1008000001F0B3FE00BF41E7014691F83D0020280A
:100810001BD1282081F83D000868006800F0010025
:1008200028B90868006840F001000A68106008688C
:10083000006840F480600A6810600868406840F40E
:1008400040700A685060002070470220FCE7704743
:1008500070B504460CB9012070BD94F83D0028B96C
:10086000002084F83C00204600F0EAF8242084F8B8
:100870003D002068006820F00100216808602068C1
:10088000006840F40040216808602068006820F497
:1008900000402168086000F095FB05465C496068EF
:1008A000884206D85B48854201D2012007E000203B
:1008B00005E05948854201D2012000E000200128CE
:1008C00000D1C9E75548B5FBF0F62068406820F034
:1008D0003F003043216848604D496068884201D834
:1008E000701C07E04FF4967070434FF47A71B0FBC0
:1008F000F1F0401C2168096A21F03F01084321689A
:10090000086243496068884214D8681E61684900DB
:10091000B0FBF1F0401CC0F30B00042801D204200E
:100920003DE0681E61684900B0FBF1F0401CC0F377
:100930000B0034E0A06838B9681E616801EB410122
:10094000B0FBF1F0401C0AE0681E616801EBC102D7
:1009500002EB0111B0FBF1F0401C40F48040C0F309
:100960000B0008B901201AE0A06848B9681E616848
:1009700001EB4101B0FBF1F0401CC0F30B000CE0B7
:10098000681E616801EBC10202EB0111B0FBF1F0DE
:10099000401CC0F30B0040F4804040F4004021684C
:1009A000C9694CF6FF72914308432168C861D4E9D4
:1009B000070108432168096821F0C0010843216844
:1009C0000860D4E9031008432168896848F2FF32BF
:1009D0009143084321688860D4E9050108432168F0
:1009E000C96821F0FF0108432168C86020680068D9
:1009F00040F001002168086000202064202084F875
:100A00003D000020206384F83E0000BF24E7000082
:100A1000A086010080841E0000093D0040420F00B6
:100A200010B504460348FFF7EFFE08B1FFF73FFC9F
:100A300010BD0000140000207047704770477047D9
:100A400010B586B00446142101A8FFF7F1FB234935
:100A50002068884240D100BF0020009020480068F4
:100A600040F002001E4908600846006800F00200DD
:100A7000009000BF00BF4FF4407001901220029020
:100A800001200390032004900420059001A915483B
:100A9000FFF726FC00BF00200090114810300068CE
:100AA00040F400100E49103108600846006800F458
:100AB0000010009000BF00BF002211461F2000F070
:100AC00067F91F2000F054F900221146202000F0A1
:100AD0005FF9202000F04CF906B010BD0054004032
:100AE000303802400004024010B504460848094A64
:100AF0001278811801231A46204600F027F808B121
:100B0000FFF7D5FB03480078401C0249087010BD70
:100B1000940100200000002010B504460848094A4E
:100B20001278811820230122074800F05EF808B1EE
:100B3000FFF7BDFB03480078401E0249087010BD56
:100B400094010020010000201400002038B5044664
:100B500094F83D0000F02800282844D101B10AB9DA
:100B6000012038BD00BF94F83C00012801D10220CB
:100B7000F7E7012084F83C0000BF2068006800F01F
:100B8000010028B92068006840F00100256828604D
:100B90002068006820F40060256828602A2084F816
:100BA0003D00202084F83E000020206461626285C0
:100BB000608D2085E36200BF0020009020684069BE
:100BC000009020688069009000BF00BF00BF002037
:100BD00084F83C0000BF2068406840F4E06025686D
:100BE00068600020BDE70220BBE738B5044694F8F2
:100BF0003D0000F02800282844D101B10AB90120A5
:100C000038BD00BF94F83C00012801D10220F7E76D
:100C1000012084F83C0000BF2068006800F001005B
:100C200028B92068006840F0010025682860206825
:100C3000006820F4006025682860292084F83D00C1
:100C4000202084F83E000020206461626285608D6F
:100C50002085E36200BF002000902068406900907A
:100C600020688069009000BF00BF00BF002084F8AA
:100C70003C0000BF2068406840F4E0602568686080
:100C80000020BDE70220BBE703480068034909785C
:100C90000844014908607047040000200C0000204F
:100CA00010B50D48006840F400700B490860084614
:100CB000006840F4806008600846006840F4807076
:100CC0000860032000F0A2F8002000F007F800F010
:100CD0002BF8002010BD0000003C024070B5044617
:100CE0000E4800784FF47A71B1FBF0F00C490968B6
:100CF000B1FBF0F5284600F057FF08B1012070BDA8
:100D0000102C07D200222146501E00F041F8054861
:100D1000046001E00120F2E70020F0E70C00002071
:100D2000100000200800002008B500BF002000903F
:100D30000E48006840F480400C490860084600688E
:100D400000F48040009000BF00BF00BF0020009072
:100D5000081F006840F08050091F086008460068BE
:100D600000F08050009000BF00BF08BD4438024032
:100D700001460846002809DB00F01F0301229A40C3
:100D800043099B0003F1E023C3F8002100BF704733
:100D90002DE9F05F80460D461646002702F022F846
:100DA000074639462A46334601F00700C0F1070AD4
:100DB000BAF1040F02D94FF0040A01E0C0F1070AAA
:100DC000D14600F1040ABAF1070F02D24FF0000A2F
:100DD00001E0A0F1030AD4464FF0010A0AFA09FA29
:100DE000AAF1010A0AEA020A0AFA0CFA4FF0010B08
:100DF0000BFA0CFBABF1010B0BEA030B4AEA0B04F9
:100E00002146404601F0F6FFBDE8F09F00BF00F02C
:100E10000702064B19684FF6FF031940044B0B43BA
:100E200043EA0221014B196000BF70470CED00E05E
:100E30000000FA0570B504460D460CB9012070BDDE
:100E40005848006800F00F00A84209D255490D70BB
:100E50000846006800F00F00A84201D00120EEE72C
:100E6000207800F0020002281DD1207800F0040054
:100E7000042805D14C48006840F4E0504A49086015
:100E8000207800F00800082805D14748006840F4A1
:100E90006040454908604448006820F0F000A168BF
:100EA000084341490860207800F00100A8B3606859
:100EB000012807D13C4808380068C0F34040B8B961
:100EC0000120BCE76068022802D06068032807D1CF
:100ED000354808380068C0F3406048B90120AEE7E3
:100EE000314808380068C0F3400008B90120A6E77F
:100EF0002D48006820F00300616808432A49086013
:100F0000FFF7F4FA064609E0FFF7F0FA801B41F21A
:100F10008831884202D9032091E707E0224800681F
:100F200000F00C006168B0EB810FEDD11D48006846
:100F300000F00F00A84209D91A490D700846006850
:100F400000F00F00A84201D0012078E7207800F0DF
:100F50000400042807D11448006820F4E050E16838
:100F6000084311490860207800F00800082808D1DB
:100F70000D48006820F46040216940EAC1000A4938
:100F8000086000F02FF808490968C1F30311074A07
:100F9000515CC8400649086006480068FFF79EFE9D
:100FA00000204CE7003C024008380240F02E0008C8
:100FB0001000002008000020014800687047000071
:100FC0001000002000B5FFF7F7FF04490968C1F3DE
:100FD0008221034A515CC84000BD0000083802402D
:100FE000002F00082DE9F047002400250026A14627
:100FF0002548006800F00C0020B1042805D008281E
:101000003AD105E0DFF8849039E0DFF8849036E0EB
:101010001D48001F006800F03F041B48001F0068C7
:1010200000F4800078B11A481749091F0968C1F314
:101030008811A0FB01700146224600233846FFF7C5
:10104000BFF805460EE011480F49091F0968C1F3B2
:101050008811A0FB01700146224600233846FFF7A5
:10106000AFF805460848001F0068C0F30140401C67
:101070004600B5FBF6F902E0DFF8109000BF00BFB4
:101080004846BDE8F0870000083802400024F4001C
:1010900000127A00F8B504460CB90120F8BD20789A
:1010A00000F00100002874D0F948006800F00C003E
:1010B00004280DD0F648006800F00C00082813D171
:1010C000F348001F006800F48000B0F5800F0BD1DA
:1010D000EF4808380068C0F34040002859D06068E5
:1010E000002856D10120D9E700BF6068B0F5803FE5
:1010F00008D1E7480838006840F48030E4490839EE
:1011000008601EE06068B0F5A02F0DD1E0480838F7
:10111000006840F48020DE4908390860084600680D
:1011200040F4803008600CE0D9480838006820F4AA
:101130008030D749083908600846006820F48020CC
:10114000086000BF606890B1FFF7D0F9054606E07F
:10115000FFF7CCF9401B642801D903209EE7CC4857
:1011600008380068C0F340400028F1D011E0FFF7D4
:10117000BDF9054606E0FFF7B9F9401B642801D91F
:1011800003208BE7C24808380068C0F340400028BD
:10119000F1D1207800F0020002285FD1BC4800683D
:1011A00000F00C0058B1BA48006800F00C000828A4
:1011B0001CD1B748001F006800F48000B0B9B448E3
:1011C00008380068C0F3400020B1E068012801D071
:1011D000012063E7AE480838006820F0F800216974
:1011E00040EAC100AA490839086037E0E06800B366
:1011F0000120A8490860FFF779F9054606E0FFF7E6
:1012000075F9401B022801D9032047E7A048083898
:101210000068C0F340000028F1D09D4808380068FD
:1012200020F0F800216940EAC100994908390860B6
:1012300014E0002097490860FFF758F9054606E0DA
:10124000FFF754F9401B022801D9032026E79048F4
:1012500008380068C0F340000028F1D1207800F081
:10126000080008282CD16069A8B101208A490860CB
:10127000FFF73CF9054606E0FFF738F9401B022866
:1012800001D903200AE782486C300068C0F34000AF
:101290000028F1D014E000207F490860FFF726F90C
:1012A000054606E0FFF722F9401B022801D903207A
:1012B000F4E677486C300068C0F340000028F1D1B4
:1012C000207800F00400042870D1002770483830DE
:1012D000006800F0805090B900BF002000906C487A
:1012E0003830006840F0805069493831086008465D
:1012F000006800F08050009000BF00BF01276748E1
:10130000006800F48070B0B96448006840F48070F0
:1013100062490860FFF7EAF8054606E0FFF7E6F8DD
:10132000401B022801D90320B8E65C48006800F49D
:1013300080700028F2D000BFA068012808D154486E
:101340006830006840F001005149683108601DE0D4
:10135000A06805280DD14E486830006840F00400B0
:101360004B49683108600846006840F00100086099
:101370000CE047486830006820F0010044496831BB
:1013800008600846006820F00400086000BFA068FC
:10139000A8B1FFF7ABF8054609E0FFF7A7F8401B37
:1013A00041F28831884202D9032077E626E03848A6
:1013B00068300068C0F340000028EED013E0FFF76B
:1013C00095F8054608E0FFF791F8401B41F2883197
:1013D000884201D9032061E62D4868300068C0F3D7
:1013E00040000028EFD1012F07D12948383000688C
:1013F00020F0805026493831086000BFA0690028DD
:1014000045D02348006800F00C0008285DD0A06992
:10141000022845D100201F490866FFF767F80546F6
:1014200006E0FFF763F8401B022801D9032035E6E8
:10143000174808380068C0F340600028F1D1D4E9AB
:1014400007010843616A40EA81110122A06AC2EBE8
:10145000500041EA00412C20005D41EA00600C4947
:10146000091F086001200B490866FFF73FF8054691
:1014700006E0FFF73BF8401B022801D903200DE6E8
:10148000034808380068C0F340600028F1D03FE00E
:101490000838024000004742800E4742007000407A
:1014A00000201C490866FFF721F8054606E0FFF713
:1014B0001DF8401B022801D90320EFE516480068FB
:1014C000C0F340600028F2D122E0A069012800D1D9
:1014D000E4E51148001D066806F48001E0698142D8
:1014E00014D106F03F01206A81420FD147F6C07047
:1014F0003040616A884209D106F44031A06A8142D5
:1015000004D106F07061E06A814201D00120C5E596
:101510000020C3E500004742003802407047000049
:10152000F8B504462068466820688568C5F38010D1
:1015300048B905F0010030B1C6F3801018B120465B
:10154000216C8847F8BDC5F3400030B1C6F3C01028
:1015500018B12046616C8847F4E7C5F3401030B9F4
:10156000C5F3801018B9C5F3002000287CD0C6F35D
:10157000401000287DD0C5F38010F0B194F85100E0
:1015800003280ED0606D40F00400606500BF0020AD
:1015900000902068C068009020688068009000BFBC
:1015A0000BE000BF002000902068C0680090206819
:1015B0008068009000BF00BFC4E7C5F3401088B149
:1015C000606D40F00100606500BF00200090206861
:1015D000806800902068006820F040002168086062
:1015E00000BF00BFC5F3002058B1606D40F0080097
:1015F000606500BF0020009020688068009000BFF8
:1016000000BF606D78B32068406820F0E00021687A
:101610004860012084F8510006F00200022802D040
:1016200006F0010008B32068406820F0030021683C
:101630004860E06C50B11048E16C0865E06CFEF762
:1016400037FE18B1606D40F040006065A06C50B18D
:101650000948A16C0865A06CFEF72AFE18B1606D00
:1016600040F04000606503E003E02046FFF756FFCE
:1016700068E700BF66E70000E12B000810B50446EC
:101680000CB9012010BD606A00B900BF0021A16241
:1016900094F8510028B9002084F85000204600F04A
:1016A00033F8022084F851002068006820F04000E0
:1016B00021680860D4E901010843E1680843216911
:1016C000084361690843218B01F400710843E16913
:1016D0000843216A0843A16A08432168086004217D
:1016E000A06901EA1040616A0843216848602068E7
:1016F000C06920F400602168C86100206065012095
:1017000084F851000020BDE710B586B004461421CE
:1017100001A8FEF78DFD4D492068884255D100BFD4
:10172000002000904A48006840F480504849086012
:101730000846006800F48050009000BF00BF00BF62
:101740000020009042481438006840F001004049F1
:10175000143908600846006800F00100009000BFDE
:1017600000BF00BF002000900846006840F0020063
:1017700008600846006800F00200009000BF00BF4B
:10178000402001900220029000200390032004904A
:101790000520059001A92F48FEF7A2FD2820019001
:1017A0000220029000200390032004900520059061
:1017B00001A92948FEF794FD002201212320FFF70B
:1017C000E7FA2320FFF7D4FA3EE024492068884254
:1017D0003AD100BF002000901D48001F006840F46F
:1017E00080401B49091F08600846006800F48040DB
:1017F000009000BF00BF00BF0020009014481438C4
:10180000006840F002001249143908600846006878
:1018100000F00200009000BF00BF4FF46040019054
:1018200002200290002003900320049005200590E0
:1018300001A90948FEF754FD002201212420FFF7E9
:10184000A7FA2420FFF794FA06B010BD003001403B
:1018500044380240000002400004024000380040CA
:1018600070472DE9FF5F0446884691461D460E9E4F
:10187000012002900020019000BF94F85000012840
:1018800003D1022004B0BDE8F09F012084F850008D
:1018900000BFFEF72BFE074694F851B06068039036
:1018A000AA46BBF1010F0BD00398B0F5827F04D19B
:1018B000A06810B9BBF1040F02D002200190DBE058
:1018C000B8F1000F03D0B9F1000F00D015B9012015
:1018D0000190D1E094F85100042802D0052084F84A
:1018E000510000206065C4F83890E587A587C4F8EA
:1018F0003080E586A586206460642068006800F07A
:101900004000402805D02068006840F04000216871
:101910000860E068B0F5006F4AD1606810B1BAF1B4
:10192000010F09D1206B00882168C860206B801CE2
:101930002063E08E401EE08633E02068806800F07F
:101940000200022810D1E08E70B1029801280BD15C
:10195000206B00882168C860206B801C2063E08EAB
:10196000401EE086002002902068806800F00100A0
:1019700068B1E08F58B12068C068A16B0880A06B87
:10198000801CA063E08F401EE08701200290FEF7DC
:10199000ADFDC01BB04204D3701C10B103200190F8
:1019A0006AE0E08E0028C8D1E08F0028C5D14AE067
:1019B000606810B1BAF1010F09D1206B007821687D
:1019C0000873206B401C2063E08E401EE08634E0EC
:1019D0002068806800F00200022810D1E08E70B10B
:1019E000029801280BD1206B007821680873206BC6
:1019F000401C2063E08E401EE0860020029020689C
:101A0000806800F0010068B1E08F58B12068C068BC
:101A1000A16B0870A06B401CA063E08F401EE087A4
:101A200001200290FEF762FDC01BB04201D3701C82
:101A300000B916B9032001901EE0E08E0028C7D13E
:101A4000E08F0028C4D13A463146204601F0D2F852
:101A500020B101200190202060650DE0A06850B900
:101A600000BF002000902068C06800902068806857
:101A7000009000BF00BF00BF012084F8510000BFEC
:101A8000002084F8500000BF0198FBE6F0B5044642
:101A9000002700BF94F85000012801D10220F0BDBA
:101AA000012084F8500000BF94F851506668012D61
:101AB00008D0B6F5827F03D1A06808B9042D01D003
:101AC000022735E009B102B10BB9012730E094F8E3
:101AD0005100042802D0052084F8510000206065E0
:101AE0002163A386E386A263A387E387E06820B12E
:101AF000134820641348606403E0134820641348CB
:101B000060642068406840F0E000D4F800C0CCF881
:101B100004002068006800F04000402807D02068DA
:101B2000006840F04000D4F800C0CCF8000000BFCE
:101B300000BF002084F8500000BF3846AFE7000027
:101B4000552A0008BD2A0008892A0008F12A000841
:101B500010B5044610480078401C0F490870A06B6F
:101B600000780E490C4A127888540D480A490978C1
:101B7000405C216B087008480078962802DB002042
:101B8000054908700123054A05490648FFF77EFF0D
:101B900008B1FEF78CFB10BD0200002032050020CA
:101BA00006040020C002002070B504462546681EC9
:101BB000B0F1807F01D301200FE0681E4FF0E021DB
:101BC00048610F214FF0FF3001F014F900204FF071
:101BD000E021886107200861002070BD00BFFEE79A
:101BE00010B50248FEF7C4FC10BD00001400002030
:101BF00010B50248FEF726FD10BD000014000020BD
:101C0000C16AB1F52A0F02D10121C16205E0C16AA2
:101C1000B1F12A4F01D10821C162704770B5054664
:101C2000AC6B94F83D60606B10B10020616BC863D1
:101C3000A06B10B10020A16BC8632068006820F47D
:101C400080602168086000206085606B10B1002012
:101C5000616B0865A06B10B10020A16B086520685E
:101C6000006820F001002168086094F83D006028B9
:101C70000AD1202084F83D00002084F83E00206432
:101C80002046FEF739FC1EE006F02800282811D176
:101C90002068006840F00100216808602068006842
:101CA00040F480602168086000202063282084F8C8
:101CB0003D0005E0202084F83D00002084F83E002F
:101CC0002046FEF7C4FD70BD70B5044694F83D6033
:101CD00094F83E00102807D1222E05D12068006814
:101CE00020F400602168086006F02800282805D14B
:101CF00000202063282084F83D000FE02068406821
:101D000000F40060B0F5006F04D0602E02D02020F7
:101D100084F83D000020206384F83E00206840687D
:101D200000F40060B0F5006F40D12068406820F4F6
:101D3000006021684860606B90F83500012814D07D
:101D40004848616B0865606BFEF7B2FA00285BD00B
:101D50002068006820F0010021680860202084F8D5
:101D60003D00606B016D88474EE03E48A16B086501
:101D7000A06BFEF79DFA002846D020684069C0F3AA
:101D8000801030B120680069616A0870606A401C88
:101D900060622068006820F001002168086020204F
:101DA00084F83D00A06B016D88472DE094F83D005C
:101DB00060281AD1202084F83D000020206420688B
:101DC0004069C0F3801030B120680069616A087012
:101DD000606A401C60622068006820F00100216891
:101DE00008602046FEF788FB0EE020684069C0F3DB
:101DF000801030B120680069616A0870606A401C18
:101E000060622046FEF723FD256C05F0010058B9FD
:101E100005F00200022807D005F00400042803D0D2
:101E200005F00800082805D12068406820F4E0602B
:101E30002168486094F83D60206C00F0040004289C
:101E40000ED1282E0CD10848E0620020206320200B
:101E500084F83D00002084F83E002046FEF7E0FDB7
:101E600070BD00001D1C00080000FFFF70B5044697
:101E7000E56A608D042810D12068406820F48060F5
:101E80002168486020680069616A0870606A401CC7
:101E90006062608D401E60857AE0608D03281AD1F3
:101EA0002068406820F4806021684860042D07D0D5
:101EB000022D05D02068006820F480602168086049
:101EC00020680069616A0870606A401C6062608D09
:101ED000401E60855CE0608D02284FD1012D01D04D
:101EE000102D06D12068006820F480602168086009
:101EF00012E0042D01D0022D06D12068006840F4C4
:101F000080602168086007E0102D05D02068006817
:101F100040F400702168086020680069616A0870F8
:101F2000606A401C6062608D401E608520680069A8
:101F3000616A0870606A401C6062608D401E608546
:101F40002068406820F4407021684860202084F8B0
:101F50003D0094F83E00402807D1002084F83E0060
:101F600020632046FEF76AFD12E0002084F83E0060
:101F7000122020632046FEF75FFD09E0206800691B
:101F8000616A0870606A401C6062608D401E6085F6
:101F900070BD70B5044694F83D0022284AD1658D85
:101FA000032D13D920680069616A0870606A401CBB
:101FB0006062608D401E6085608D032839D1206885
:101FC000406820F480602168486032E0E06A0228BE
:101FD0002FD0012D00D01DBB2068006820F4806048
:101FE000216808602068406820F4E060216848604B
:101FF00020680069616A0870606A401C6062608DD8
:10200000401E6085202084F83D0094F83E00402862
:1020100007D1002084F83E0020632046FEF70EFD25
:1020200007E0002084F83E00122020632046FEF7DF
:1020300003FD00BF70BD70B50446E56A94F83D002D
:10204000212848D1608D50B1606A0078216808610C
:10205000606A401C6062608D401E608542E0082D11
:1020600016D0202D14D015F5803F11D0206840687F
:1020700020F4E0602168486011202063002084F88B
:102080003E00202084F83D002046FEF7D6FC29E0E3
:102090002068406820F4E06021684860206800689B
:1020A00040F400702168086000202063202084F83C
:1020B0003D0094F83E00402806D1002084F83E0000
:1020C0002046FEF7BCFC0DE0002084F83E002046D0
:1020D000FEF7B3FC06E094F83E00402802D120460B
:1020E00000F005FA70BD2DE9F041044694F83D502A
:1020F00094F83E70E66A208DB0BB212D3CD1082EAD
:1021000016D0202E14D016F5803F11D020684068DC
:1021100020F4E0602168486011202063002084F8EA
:102120003E00202084F83D002046FEF786FC44E077
:102130002068406820F4E0602168486020680068FA
:1021400040F400702168086000202063202084F89B
:102150003D0094F83E00402807D1002084F83E005E
:102160002046FEF76CFC28E006E0002084F83E00E4
:102170002046FEF762FC20E0212D03D0402F1CD129
:10218000222D1AD1608D30B92068406820F480601B
:102190002168486011E094F83E00402803D12046B1
:1021A00000F0A5F909E0606A007821680861606ABA
:1021B000401C6062608D401E6085BDE8F081416C0E
:1021C000C9B202681161416B09B9816B59B1416BA8
:1021D000C96B11B9816BC96B29B10168496841F4B8
:1021E000006102685160704738B590F83E20C16ABE
:1021F000036B90F83D40222C73D1046D64B9402AE2
:102200000AD100BF00240094046864690094046843
:10221000A469009400BF1AE1046DC4B90469B4F55F
:10222000404F14D100BF00240094046864690094F6
:102230000468A469009400BF00BF0468246844F4E3
:10224000807405682C60046D641C0465FFE0448D97
:102250008CB900BF00240094046864690094046889
:10226000A469009400BF00BF0468246844F40074AB
:1022700005682C60DDE0448D012C72D111F5803FA2
:1022800030D10468246824F4806405682C600468F4
:10229000646804F40064B4F5006F10D10468246825
:1022A00024F4806405682C6000BF00240094046856
:1022B000646900940468A469009400BFB9E000BF99
:1022C000002400940468646900940468A46900947C
:1022D00000BF00BF0468246844F4007405682C60E3
:1022E000A7E0A9E0082923D0202921D0122B01D171
:1022F00001291DD104290AD0022908D0102906D0AD
:102300000468246824F4806405682C6005E004688F
:10231000246844F4806405682C6000BF00240094A5
:102320000468646900940468A469009400BF80E0B4
:102330000468246824F4806405682C6000BF0024CD
:1023400000940468646900940468A469009400BF60
:1023500000BF0468246844F4007405682C6068E0D9
:10236000FFE7448D022C3BD1042910D002290ED066
:1023700010290CD00468246824F4806405682C605B
:102380000468246844F4006405682C6005E004686F
:10239000246844F4806405682C600468646804F46C
:1023A0000064B4F5006F10D111F5803F07D001290A
:1023B00005D0082903D0102901D0202905D10468AF
:1023C000646844F4805405686C6000BF0024009485
:1023D0000468646900940468A469009400BF28E05C
:1023E0000468246844F4806405682C6004686468A8
:1023F00004F40064B4F5006F10D111F5803F07D0EC
:10240000012905D0082903D0102901D0202905D1A0
:102410000468646844F4805405686C6000BF00245C
:1024200000940468646900940468A469009400BF7F
:1024300000BF002404650AE000BF00240094046883
:10244000646900940468A469009400BF00BF38BDAB
:1024500090F83E1040290ED1016D29B9416C01F070
:10246000FE010268116141E0416CC9B241F0010115
:10247000026811613AE00169B1F5804F20D190F80E
:102480003D10212905D1416C01F0FE010268116166
:1024900005E0416CC9B241F0010102681161416B74
:1024A00011B1416BC96B21B9816BF9B1816BC96BFA
:1024B000E1B10168496841F400610268516015E0CA
:1024C000016D41B9416C01F44071F02242EAE11121
:1024D000026811610AE0016D012907D1416C01F424
:1024E0004071F12242EAE111026811617047016D09
:1024F00099B9C16C012907D1816CC9B20268116117
:10250000016D891C01652FE0816CC1F30721026810
:102510001161016D491C016526E0016D012907D19A
:10252000816CC9B202681161016D491C01651BE033
:10253000016D022918D190F83D10222906D10168B9
:10254000096841F48071026811600DE090F83D1057
:10255000212909D1416A097802681161416A491C3F
:102560004162418D491E41857047418D49B10168E5
:102570000969426A1170416A491C4162418D491ED4
:102580004185704770B5044694F83D50608DD8B1D0
:1025900020680069616A0870606A401C6062608D32
:1025A000401E6085608D78B92A2D0DD12068406865
:1025B00020F480602168486022202063282084F86D
:1025C0003D002046FEF790FA70BD418D49B1416A49
:1025D000097802681161416A491C4162418D491EB6
:1025E0004185704770B5044694F83D50608DD8B170
:1025F000606A007821680861606A401C6062608DD2
:10260000401E6085608D78B9292D0DD12068406805
:1026100020F480602168486021202063282084F80D
:102620003D002046FEF778FA70BD2DE9F0410446E2
:102630000D46002794F83D0000F0280028281CD102
:102640002068406820F4806021684860C5F38000FD
:1026500000B90127C5F3C01010B9A08986B201E006
:10266000208B86B200BF002084F83C0000BF3246B9
:1026700039462046FDF742FF08E06FF0020021686E
:10268000486100BF002084F83C0000BFBDE8F08135
:1026900070B5044694F83D50E66A082E01D0202E0D
:1026A0001FD1282D1DD12148E0622068406820F408
:1026B000E060216848606FF48060216848612068AC
:1026C000006820F4806021680860002020632020DA
:1026D00084F83D00002084F83E002046FEF7A0F973
:1026E00023E0212D1DD11148E0622120206320200C
:1026F00084F83D00002084F83E002068406820F403
:10270000E060216848606FF480602168486120685B
:10271000006820F48060216808602046FEF7FCF91C
:1027200003E06FF480602168486170BD0000FFFF26
:1027300038B5044694F83D502068406820F4E060C5
:102740002168486000BF0020009020684069009028
:102750002068006840F001002168086000BF00BFE9
:102760002068006820F48060216808602068406864
:1027700000F40060B0F5006F42D1222D01D02A2D67
:102780001FD1A06B006840686085608D18B1206C17
:1027900040F0040020642068406820F40060216854
:1027A0004860A06BFDF798FD012829D04148A16B36
:1027B0000865A06BFDF77CFD10B3A06B016D884729
:1027C0001EE0606B006840686085608D18B1206C09
:1027D00040F0040020642068406820F40060216814
:1027E0004860606BFDF778FD012809D03148616BC6
:1027F0000865606BFDF75CFD10B1606B016D88478B
:10280000608D18B320684069C0F3800048B120682B
:102810000069616A0870606A401C6062608D401ED9
:10282000608520684069C0F3801048B12068006965
:10283000616A0870606A401C6062608D401E60853D
:10284000608D18B1206C40F004002064206C18B139
:102850002046FFF739FA2BE02A2D07D1002020630C
:10286000282084F83D002046FEF73EF994F83D000C
:1028700028280DD11048E06200202063202084F831
:102880003D00002084F83E002046FEF7C9F80FE026
:10289000206B222801D0222D0AD100202063202085
:1028A00084F83D00002084F83E002046FEF71CF925
:1028B00038BD00001D1C00080000FFFF00B587B0F8
:1028C000142102A8FDF7B4FC00BF002001902348AA
:1028D000006840F08000214908600846006800F068
:1028E0008000019000BF00BF00BF0020019008469B
:1028F000006840F0010008600846006800F0010030
:10290000019000BF00BF00BF002001900846006892
:1029100040F0020008600846006800F002000190E4
:1029200000BF00BF0122C9140D48FDF7D9FD0120E9
:10293000029000200390049002A90948FDF7D0FC02
:102940004FF4006002900120039004900220059053
:1029500002A90348FDF7C4FC07B000BD30380240AF
:102960000004024010B50D480D4908600D4848604C
:1029700000210B488160A021C1604FF480410161BA
:102980000021416181614021C16100210162FDF7A7
:102990005FFF08B1FDF78BFC10BD00000054004044
:1029A00014000020A086010010B50D480D490860F4
:1029B0000020486000210B488160C16001614161D5
:1029C0004FF40071816100210162416281620A213C
:1029D000C162FEF753FE08B1FDF769FC10BD0000AF
:1029E00000300140C002002010B50E480E490860BA
:1029F0004FF48270486000210B488160C160016122
:102A000041614FF4007181613821C161002101628F
:102A1000416281620A21C162FEF730FE08B1FDF712
:102A200046FC10BD003800401803002000BFFEE740
:102A30007047704710B50248FEF772FD10BD0000E8
:102A4000C002002010B50248FEF76AFD10BD00006C
:102A50001803002010B504462068C068A16B0880E8
:102A6000A06B801CA063E08F401EE087E08F50B910
:102A70002068406820F0400021684860E08E10B96E
:102A8000204600F04FF810BD10B504462068007BCA
:102A9000A16B0870A06B401CA063E08F401EE08714
:102AA000E08F50B92068406820F0600021684860DD
:102AB000E08E10B9204600F035F810BD10B5044680
:102AC000206B00882168C860206B801C2063E08E2A
:102AD000401EE086E08E50B92068406820F08000FB
:102AE00021684860E08F10B9204600F01BF810BD47
:102AF00010B50446206B007821680873206B401CD9
:102B00002063E08E401EE086E08E50B92068406869
:102B100020F0800021684860E08F10B9204600F066
:102B200001F810BD7CB504462C4800681821B0FBA4
:102B3000F1F04FF47A71B0FBF1F064214843019059
:102B4000FDF7D4FC05462068406820F0200021688D
:102B5000486000BF019820B9606D40F020006065BA
:102B600008E00198401E01902068806800F0020093
:102B70000028EFD000BF2A466421204600F03AF832
:102B800018B1606D40F020006065A06850B900BFCA
:102B9000002000902068C068009020688068009045
:102BA00000BF00BF606D88B994F85100042806D1B9
:102BB000012084F851002046FEF752FE0CE001206F
:102BC00084F851002046FEF7C3FF05E0012084F899
:102BD00051002046FEF7A2FC7CBD00001000002042
:102BE00070B50546AC6B0020E087E0862046FEF716
:102BF00095FC70BD7CB504460D4616461648006827
:102C00001821B0FBF1F01549B0FBF1F04FF47A71E7
:102C1000484301906068B0F5827F0DD12B460022B9
:102C200080212046009600F01BF898B1606D40F0BE
:102C30002000606503207CBD00BF019800B908E05A
:102C40000198401E019020688068C0F3C0100028E1
:102C5000F3D100BF0020EEE71000002040420F003B
:102C60002DE9F04104460E4617461D46DDF8188052
:102C70003EE0681CD8B3FDF739FCA0EB0800A84281
:102C800000D2A5BB2068406820F0E00021684860C1
:102C90006068B0F5827F0DD1A068B0F5004F03D019
:102CA000A068B0F5806F05D12068006820F0400072
:102CB00021680860A06AB0F5005F0DD100BF2068F0
:102CC000006820F40050216808602068006840F423
:102CD00000502168086000BF012084F8510000BF47
:102CE000002084F8500000BF0320BDE8F081FFE71A
:102CF000206880683040B04201D1012000E000200F
:102D0000B842B6D10020F0E7704710B5FDF7BCFF20
:102D100010BD000000B593B0302107A8FDF788FA78
:102D2000142102A8FDF784FA00BF00200190234877
:102D3000006840F08050214908600846006800F0B3
:102D40008050019000BF00BF00BF002001901C48D0
:102D5000006840F480401A4908600846006800F4A2
:102D60008040019000BF00BF012007900004089040
:102D700002200D9041050E9104210F91D821109150
:102D800004211191129107A8FEF784F908B1FDF70B
:102D90008EFA0F20029002200390002004904FF43E
:102DA000A05005904FF480500690032102A8FEF732
:102DB00041F808B1FDF77BFA13B000BD403802407E
:102DC000007000400548006840F470000349086046
:102DD0004FF00060014980390860704788ED00E0DD
:102DE00000BFFEE702480068C0F302207047000001
:102DF0000CED00E010B5002804DB0A07130E054AAD
:102E0000135406E00A07140E034A00F00F031B1FB9
:102E1000D45410BD00E400E018ED00E002E008C862
:102E2000121F08C1002AFAD170477047002001E044
:102E300001C1121F002AFBD17047FDF731FFFFF7D8
:102E400069FFFFF73BFDFFF78DFDFFF7ADFDFFF7D6
:102E5000CBFD00F03BF801E000F002F8FCE70000D9
:102E600038B5002400BF05E0601C1349085513491C
:102E70000855C4B2962CF7DB00224FF400611048CD
:102E8000FDF72EFB00240EE0642000900D4802198F
:102E90000948011901230C48FEF7E3FC08B1FDF7CE
:102EA00006FA601CC4B2962CEEDB0122D102044863
:102EB000FDF716FB38BD000070030020060400205B
:102EC000000402409C0400201803002010B50123D8
:102ED000044A05490548FEF7D9FD08B1FDF7E7F9B1
:102EE00010BD00003205002006040020C0020020B2
:102EF00000000000000000000102030406070809AA
:102F00000000000001020304282F00080000002038
:102F1000140000001C2E00083C2F000814000020A4
:102F2000B40900002C2E00080095000000000000ED
:0C2F300010000000010000000024F4006C
:040000050800018965
:00000001FF
